:040000008A11112828
:10000800FE00030EF0000408F1000A08F200831253
:1000180003137F08F3008A11582B8A1113288A11B9
:1000280075238A11F7008A117623F800F9018301F4
:040038008A111E2BE0
:10020000FF1B0A2983137F1883170008840A031928
:10021000FF0A08007F087F398A000408840A03194E
:10022000FF0A8200243400342434003400340034C3
:10023000423400343C3400348034003424340034FC
:100240002434003400340034423400343C3400346C
:100250004034003424340034243400340034003476
:10026000423400343C34003420340034243400342C
:100270002434003400340034423400343C3400343C
:100280001034003424340034243400340034003476
:10029000423400343C340034083400342434003414
:1002A0002434003400340034423400343C3400340C
:1002B0000434003424340034243400340034003452
:1002C000423400343C3400340234003424340034EA
:1002D0002434003400340034423400343C340034DC
:1002E0000134003424340034243400340034003425
:1002F000423400343D3400340034003424340034BB
:100300002434003400340034433400343C340034AA
:1003100000340034243400342434003401340034F4
:10032000423400343C34003400340034243400348B
:100330002534003400340034423400343C3400347A
:1003400000340034253400342434003400340034C4
:10035000423400343C340034003400342634003459
:100360002434003400340034423400343C3400344B
:100370000034003424340034243400340034003495
:10038000423400343C340034003400342C34003423
:100390002434003400340034423400343C3400341B
:1003A0000034003434340034243400340034003455
:1003B000423400343C3400340034003424340034FB
:1003C0002434003400340034423400343C340034EB
:1003D00000340034643400342434003400340034F5
:1003E000423400343C34003400340034A43400344B
:1003F0002434003400340034423400343C340034BB
:100400000034003424340034A43400340034003484
:10041000423400343C34003400340034243400349A
:100420002434003480340034423400343C3400340A
:1004300000340034243400342434003400340034D4
:10044000C23400343C3400340034003424340034EA
:10045000243400340034003442340034BC340034DA
:1004600000340034003400340134003400340134EA
:1004700000340034003400340134003400340134DA
:1004800000340034003400340034003400340034CC
:1004900000340034003401340034003400340034BB
:1004A00001340034003400340134013401340134A7
:1004B000003400340034003400340034003400349C
:1004C000003400348312031307160730A0000030F5
:1004D000A100A11BDF2A033020062104031D7B2A73
:1004E0007908F40002300310F40DFF3E031D732A57
:1004F0000310740DAB2A023020062104031D8C2A40
:100500007908F40002300310F40DFF3E031D832A26
:100510000310740D013EAB2A20032104031D9C2A05
:100520007908F40002300310F40DFF3E031D932AF6
:100530000310740D023EAB2A20082104031DB12ACA
:100540007908F40002300310F40DFF3E031DA32AC6
:100550000310740D033E323E840082300318013EC6
:10056000C72A7908F40002300310F40DFF3E031D82
:10057000B42A0310740D323EF50082300318013E98
:10058000F60020087507840076080318760AFF0035
:100590008A1100218A11003A031DD22A8312031303
:1005A0000714D52A83120313071007150711FF300C
:1005B000A0070318A10AFF30A107A11F6B2A071289
:1005C0000130F4007408F90706307906031D0800AD
:1005D000F901080083120313071687100714F501A9
:1005E000F6017608803AFF0080307F02031DFA2A68
:1005F0000830750203181A2B831203138715071589
:100600000630F400F40B022B000083120313871151
:1006100007110130F5070318F60A0030F6077608CF
:10062000803AFF0080307F02031D182B08307502CE
:10063000031CFC2A83120313071208008A11772374
:100640008A118A116D238A118A11EA228A118A116C
:1006500063238A118A1162228A11C730831203131D
:10066000A200322BA20B312B352B00008312031377
:1006700007168A113D238A112A2B7808803AFF0039
:1006800080307F02031D462B06307702031C4D2B62
:10069000831203138714F701F801831203138715DC
:1006A00087110130F7070318F80A0030F80708002F
:1006B0007308FF0072088A0071088400700E8300BE
:1006C000FE0E7E0E0900831203130716871487158A
:1006D00087118715871107120800831603139101EC
:1006E000FF308500C0308700080002340034080065
:02400E00F4FCC0
:00000001FF
