:040000008A11112828
:10000800FE00030E83120313A6000408A7000A08C3
:10001800A8007F08A9008A116E2D8A11132883135E
:10002800D030FD000430FE00DD30FF00A030840039
:100038008A1185258A114730FD000530FE00A4305D
:10004800FF00413084008A118525C701C801C90114
:0600580083018A116C2CEB
:10020000FF1B0A2983137F1883170008840A031928
:10021000FF0A08007F087F398A000408840A03194E
:10022000FF0A8200243400342434003400340034C3
:10023000423400343C3400348034003424340034FC
:100240002434003400340034423400343C3400346C
:100250004034003424340034243400340034003476
:10026000423400343C34003420340034243400342C
:100270002434003400340034423400343C3400343C
:100280001034003424340034243400340034003476
:10029000423400343C340034083400342434003414
:1002A0002434003400340034423400343C3400340C
:1002B0000434003424340034243400340034003452
:1002C000423400343C3400340234003424340034EA
:1002D0002434003400340034423400343C340034DC
:1002E0000134003424340034243400340034003425
:1002F000423400343D3400340034003424340034BB
:100300002434003400340034433400343C340034AA
:1003100000340034243400342434003401340034F4
:10032000423400343C34003400340034243400348B
:100330002534003400340034423400343C3400347A
:1003400000340034253400342434003400340034C4
:10035000423400343C340034003400342634003459
:100360002434003400340034423400343C3400344B
:100370000034003424340034243400340034003495
:10038000423400343C340034003400342C34003423
:100390002434003400340034423400343C3400341B
:1003A0000034003434340034243400340034003455
:1003B000423400343C3400340034003424340034FB
:1003C0002434003400340034423400343C340034EB
:1003D00000340034643400342434003400340034F5
:1003E000423400343C34003400340034A43400344B
:1003F0002434003400340034423400343C340034BB
:100400000034003424340034A43400340034003484
:10041000423400343C34003400340034243400349A
:100420002434003480340034423400343C3400340A
:1004300000340034243400342434003400340034D4
:10044000C23400343C3400340034003424340034EA
:10045000243400340034003442340034BC340034DA
:1004600000340034831203134808803AB000460871
:10047000803A3002031D3E2A45084702031C452AE4
:1004800083120313C701C8014D2A013083120313DD
:10049000C7070318C80A0030C807BC01BD013D08E2
:1004A000803AFF0080307F02031D582A06303C024C
:1004B0000318080083120313BA01BB010730B80008
:1004C0000030B9003B08803AFF0080307F02031DF6
:1004D0006B2A08303A020318CC2A83120313480807
:1004E000AB004708AA004408AD004308AC008A11DD
:1004F0000D258A11831203133C082A07B0003D081A
:1005000003183D0A2B07B1000310B00DB10D813067
:100510003107FF001230300784000318FF0A8A11E8
:1005200000218A11B2008A1100218A11B300380A11
:100530009C2A0310B30CB20CFF3E031D992A32080B
:100540000139B4003C08B50003300310B50DFF3E7F
:10055000031DA52AA0303507B6003A083607B700B4
:10056000370884003408831380000130BA07031869
:10057000BB0A0030BB07FF30B8070318B90AFF30C9
:10058000B9073B08803AFF0080307F02031DCA2A6A
:1005900008303A02031C6D2A013083120313BC0792
:1005A0000318BD0A0030BD074F2A83120313480801
:1005B000803AF6004608803A7602031DE12A450893
:1005C0004702031CE82A83120313C701C801F02A5B
:1005D000013083120313C7070318C80A0030C80785
:1005E000A401A5012508803AFF0080307F02031D89
:1005F000FB2A063024020318080083120313A20109
:10060000A3010730A0000030A1002308803AFF00BA
:1006100080307F02031D0E2B0830220203186F2B3F
:10062000831203134808F1004708F0004408F30060
:100630004308F2008A1130258A118312031324081B
:100640007007F60025080318250A7107F700031044
:10065000F60DF70D81307707FF0012307607840022
:100660000318FF0A8A1100218A11F8008A1100215B
:100670008A11F900200A3F2B0310F90CF80CFF3EF9
:10068000031D3C2B78080139FA002408FB000330D5
:100690000310FB0DFF3E031D482BA0307B07FC0021
:1006A00022087C07FD007D0884007A0883138000FF
:1006B0000130A2070318A30A0030A307FF30A007E8
:1006C0000318A10AFF30A1072308803AFF008030F9
:1006D0007F02031D6D2B08302202031C102B0130FA
:1006E00083120313A4070318A50A0030A507F22AF2
:1006F0008312031307160730AD000030AE00AE1BA7
:10070000E82B03302D062E04031D912B4908AA0067
:1007100002300310AA0DFF3E031D892B03102A0D82
:10072000C12B02302D062E04031DA22B4908AA005E
:1007300002300310AA0DFF3E031D992B03102A0D52
:10074000013EC12B2D032E04031DB22B4908AA0024
:1007500002300310AA0DFF3E031DA92B03102A0D22
:10076000023EC12B2D082E04031DC32B4908AA00ED
:1007700002300310AA0DFF3E031DB92B03102A0DF2
:10078000033EA03ED22B4908AA0003300310AA0D55
:10079000FF3E031DC62BA0302A07AB002D082B07F8
:1007A000AC002C08840083130008031DDB2B83128C
:1007B00003130714DE2B8312031307100715071109
:1007C000FF30AD070318AE0AFF30AE07AE1F812B16
:1007D00007120130AA002A08C90706304906031D7E
:1007E0000800C901080083120313B601B7013708D6
:1007F000803AFF0080307F02031D002C0630360255
:100800000318080083120313B401B5010730B200C6
:100810000030B3003508803AFF0080307F02031DAE
:10082000132C083034020318632C83120313370887
:10083000AB003608AA000310AA0DAB0D81302B07C0
:10084000FF0012302A0784000318FF0A8A110021D2
:100850008A11AC008A1100218A11AD00320A332CB2
:100860000310AD0CAC0CFF3E031D302C2C080139DD
:10087000AE003608AF0003300310AF0DFF3E031D7E
:100880003C2CA0302F07B00034083007B1003108ED
:1008900084002E08831380000130B4070318B50AC2
:1008A0000030B507FF30B2070318B30AFF30B307B3
:1008B0003508803AFF0080307F02031D612C08302C
:1008C0003402031C152C013083120313B6070318DE
:1008D000B70A0030B707F72B8A11AA258A118A11A7
:1008E0009B258A118A11A8248A118A11F3238A115F
:1008F0008A1191258A1183120313BF01C0018A1145
:1009000078238A11C73083120313BE00872CBE0BD5
:10091000862C8A2C00008312031307168A11512596
:100920008A11013083120313BF070318C00A003075
:10093000C0074008803AFF0081307F02031DA22CCF
:10094000F5303F02031C7F2C8A1132228A117B2C46
:1009500083120313071687100714AB01AC012C0890
:10096000803AFF0080307F02031DB82C08302B0234
:100970000318D92C83120313871507150630831229
:100980000313AA00AA0BC22C8312031387110711A9
:100990000130AB070318AC0A0030AC072C08803AD2
:1009A000FF0080307F02031DD72C08302B02031C70
:1009B000BA2C8312031307120800013401340134E6
:1009C000013401340134013401340134013401347F
:1009D000013401340134013401340134013401346F
:1009E000013401340134013401340134013401345F
:1009F000013401340134013401340134013401344F
:100A0000013401340134013401340134013401343E
:100A10000134013401340134013483120313AE0173
:100A2000AF012A1C192D2C08AE070318AF0A2D0898
:100A3000AF0701300310AC0DAD0DFF3E031D1A2DA5
:100A400001300310AB0CAA0CFF3E031D212D2A0818
:100A50002B04031D112D2F08AB002E08AA0008003F
:100A6000F401F501701C3A2D7208F4070318F50A19
:100A70007308F50701300310F20DF30DFF3E031D5F
:100A80003B2D01300310F10CF00CFF3E031D422DF5
:100A900070087104031D322D7508F1007408F00010
:100AA0000800831203134208803AFF0080307F025F
:100AB000031D5C2D06304102031C632D83120313BA
:100AC0008714C101C20183120313871587110130F6
:100AD000C1070318C20A0030C20708000B1D742D9D
:100AE0008A11D5228A110B11831203132908FF00E2
:100AF00028088A0027088400260E8300FE0E7E0E3A
:100B000009007E088A007F08820081258A11800002
:100B1000840A04087D0603190034FF0A0319FE0A3B
:100B2000852D8312031307168714871587118715E0
:100B3000871107120800831603139101FF30850007
:100B4000C03087008B1208000234003406340034B1
:060B500018340034080017
:02400E00F4FCC0
:00000001FF
