:040000008A11112828
:10000800FE00030EF0000408F1000A08F200831253
:1000180003137F08F3008A11AD288A11132883017E
:100028008A1116288A11C0208A118A11B8208A11CB
:100038008A1179208A1183120313071287148715EE
:100048008711871587110230A0000030A10007161C
:10005800A201A3012308803AFF0080307F02031D1C
:1000680037280830220203184F2883120313071079
:10007800071507110130A2070318A30A0030A307C8
:100088002308803AFF0080307F02031D4D28083086
:100098002202031C39288312031307120330F800C5
:1000A8009730F700F70B5628F80B56285B28831271
:1000B800031307162108803AFF0080307F02031DD2
:1000C800672806302002031C6E2883120313871446
:1000D800A001A10183120313871587110130A0071E
:1000E8000318A10A0030A1072B288312031307164F
:1000F80087100714F501F6017608803AFF00803072
:100108007F02031D8928083075020318A928831265
:100118000313871507150630F400F40B9128000027
:1001280083120313871107110130F5070318F60A24
:100138000030F6077608803AFF0080307F02031D02
:10014800A72808307502031C8B2883120313071293
:1001580008007308FF0072088A0071088400700E96
:100168008300FE0E7E0E0900831603139101FF30F3
:0A0178008500C03087000800080071
:02400E00F4FCC0
:00000001FF
