:040000008A11112828
:10000800FE00030EF0000408F1000A08F200831253
:1000180003137F08F3008A116C2B8A1113288313AA
:100028005430FD000230FE00B430FF002030840060
:100038008A116023EA01EB01F701F801F901830154
:100048008A11722A831203136B08803AD800530866
:10005800803A5802031D322852086A02031C3928C4
:1000680083120313EA01EB014128013083120313C1
:10007800EA070318EB0A0030EB07E501E60166081A
:10008800803AFF0080307F02031D4C28063065024D
:100098000318080083120313E301E4010730E100A9
:1000A8000030E2006408803AFF0080307F02031DC0
:1000B8005F28083063020318BD28831203136B08F6
:1000C800D5006A08D400813084008A1100218A1181
:1000D800D6008A1100218A11D7008A111C238A119F
:1000E800831203135408D8005508D9006508580727
:1000F800DA005A07013E84008A1100218A11DB00C8
:100108008A1100218A11DC00610A8D280310DC0C99
:10011800DB0CFF3E031D8A285B080139DD006508FA
:10012800DE0003300310DE0DFF3E031D962820304D
:100138005E07DF0063085F07E000600884005D0871
:10014800831380000130E3070318E40A0030E40752
:10015800FF30E1070318E20AFF30E2076408803A3B
:10016800FF0080307F02031DBB2808306302031C98
:100178006128013083120313E5070318E60A0030EB
:04018800E60743281B
:1002000001308A000408840A820700340034003474
:100210001D340034153400341734003400340034F5
:100220000F3400340934003409340034003400340D
:100230000F34003404340034083400340034003403
:1002400006340034093400340634003400340034F9
:100250001F340034003400341F34003400340034C0
:1002600017340034003400340F34003404340034C4
:100270000834003407340034003400341D340034B2
:10028000153400340F3400340034003400340034AA
:100290000034003410340034103400341F3400347F
:1002A0001034003410340034003400340E34003480
:1002B000153400340D340034003400340534003477
:1002C000023400340534003400340034083400347F
:1002D0000F34003408340034003400340034003467
:1002E0001D340034003400341D3400340034003434
:1002F0000234003419340034013400340134003441
:10030000013400341934003402340034063400342B
:1003100040340034073083120313D4000030D5007A
:10032000D51BF929033054065504031DA229790869
:10033000F40002300310F40DFF3E031D9A29031050
:10034000740DD229023054065504031DB3297908CF
:10035000F40002300310F40DFF3E031DAA29031020
:10036000740D013ED22954035504031DC329790895
:10037000F40002300310F40DFF3E031DBA290310F0
:10038000740D023ED22954085504031DD42979085E
:10039000F40002300310F40DFF3E031DCA290310C0
:1003A000740D033E203EE3297908F4000330031066
:1003B000F40DFF3E031DD72920307407F5005408C3
:1003C0007507F6007608840083130008031DEC29E6
:1003D000831203130714EF29831203130710071561
:1003E0000711FF30D4070318D50AFF30D507D51FF2
:1003F00092290130F4007408F90706307906031DCC
:100400000800F901080083120313DF01E00160080E
:10041000803AFF0080307F02031D102A06305F0201
:100420000318080083120313DD01DE010730DB002F
:100430000030DC005E08803AFF0080307F02031D40
:10044000232A08305D020318692A831203135F0808
:10045000D4005407013E84008A1100218A11D5007E
:100460008A1100218A11D6005B0A392A0310D60CA2
:10047000D50CFF3E031D362A55080139D7005F0809
:10048000D80003300310D80DFF3E031D422A203050
:100490005807D9005D085907DA005A088400570840
:1004A000831380000130DD070318DE0A0030DE0709
:1004B000FF30DB070318DC0AFF30DC075E08803AF8
:1004C000FF0080307F02031D672A08305D02031C95
:1004D000252A013083120313DF070318E00A0030D6
:1004E000E007072A8A118C238A118A1183238A1133
:1004F0008A11E8228A118A1103228A118A1179232A
:100500008A1183120313E801E9018312031307160A
:100510008A118A218A11831203130712C7308312AA
:100520000313E700932AE70B922A962A000083120E
:10053000031307168A113F238A1101308312031314
:10054000E8070318E90A0030E9076908803AFF0064
:1005500081307F02031DAE2AF5306802031C852A14
:100560008A1126208A11812A013401340134013490
:1005700001340134013401340134013401340134D3
:1005800001340134013401340134013401340134C3
:1005900001340134013401340134013401340134B3
:1005A00001340134013401340134013401340134A3
:1005B0000134013401340134013401340134013493
:1005C000013401340134013402340034183400346D
:1005D00083120313071687100714F501F601760836
:1005E000803AFF0080307F02031DF82A0830750230
:1005F0000318182B83120313871507150630F40010
:10060000F40B002B00008312031387110711013034
:10061000F5070318F60A0030F6077608803AFF005F
:1006200080307F02031D162B08307502031CFA2A46
:100630008312031307120800F401F5018312031358
:10064000541C282B5608F4070318F50A5708F50719
:1006500001300310D60DD70DFF3E031D292B0130AD
:100660000310D50CD40CFF3E031D302B5408550449
:10067000031D1E2B7508D5007408D40008008312D2
:1006800003135108803AFF0080307F02031D4A2B7C
:1006900006305002031C512B831203138714D00120
:1006A000D10183120313871587110130D007031876
:1006B000D10A0030D10708007E088A007F08820036
:1006C0005C238A118000840A04087D060319003423
:1006D000FF0A0319FE0A602B0B190B117308FF00A8
:1006E00072088A0071088400700E8300FE0E7E0E70
:1006F00009008312031307168714871587118715BE
:10070000871107120800831603139101FF3085003B
:0A071000C03087008B1208000800BB
:02400E00F4FCC0
:00000001FF
