:040000008A11112828
:10000800FE00030EF0000408F1000A08F200831253
:1000180003137F08F3008A1155298A1113288313C3
:100028005030FD000030FE00D930FF002030840041
:100038008A1149218A118A1172218A11F8008A11BC
:100048007321F900F601F70183018A110929831246
:10005800031307160730F4000030F500F51B962847
:10006800033074067504031D44287608D000023056
:100078000310D00DFF3E031D3C280310500D7428BB
:10008800023074067504031D55287608D000023026
:100098000310D00DFF3E031D4C280310500D013EE8
:1000A800742874037504031D65287608D00002308F
:1000B8000310D00DFF3E031D5C280310500D023EB7
:1000C800742874087504031D76287608D000023059
:1000D8000310D00DFF3E031D6C280310500D033E86
:1000E800203E85287608D00003300310D00DFF3E4F
:1000F800031D792820305007D10074085107D20019
:10010800520884008313000C031C071003180714FB
:1001180007150711FF30F4070318F50AFF30F50734
:10012800F51F342807120130F6070318F70A0030C4
:10013800F707063076067704031D0800F601F70175
:10014800080083120313071687100714D001D10182
:100158005108803AFF0080307F02031DB52808301F
:1001680050020318D5288312031387150715063084
:10017800F400F40BBD280000831203138711071144
:100188000130D0070318D10A0030D1075108803A4E
:10019800FF0080307F02031DD32808305002031C63
:1001A800B7288312031307120800003400340134FF
:1001B8000034003401340034003400340034013495
:1001C8000034003401340034003400340034003486
:1001D8000034003400340034003400340134003476
:1001E8000034003400340134003400340034013465
:1001F8000134013401340034003400340034003454
:10020800003400340034003400348A1174218A1117
:100218008A116A218A118A11A5208A118A116021FE
:100228008A118A112B208A11033083120313D400F8
:100238009730D300D30B1E29D40B1E29000083123C
:10024800031307168A112A218A1115297908803A79
:10025800FF0080307F02031D332906307802031C1B
:100268003A29831203138714F801F901831203133F
:10027800871587110130F8070318F90A0030F907C4
:1002880008007E088A007F08820045218A118000C4
:10029800840A04087D0603190034FF0A0319FE0ABC
:1002A80049297308FF0072088A0071088400700EDB
:1002B8008300FE0E7E0E09008312031307168714AF
:1002C80087158711871587110712080083160313EE
:1002D8009101FF308500C0308700080002340034E7
:0202E80008000C
:02400E00F4FCC0
:00000001FF
