:040000008A11112828
:10000800FE00030EF0000408F1000A08F200831253
:1000180003137F08F3008A11662B8A1113288313B0
:100028005430FD000230FE00B030FF002030840064
:100038008A115A238A118A1186238A11F7008A1194
:100048008723F800EA01EB01F90183018A116E2A7E
:10005800831203136B08803AD8005308803A580279
:10006800031D382852086A02031C3F288312031311
:10007800EA01EB014728013083120313EA0703184A
:10008800EB0A0030EB07E501E6016608803AFF005D
:1000980080307F02031D52280630650203180800CD
:1000A80083120313E301E4010730E1000030E200AA
:1000B8006408803AFF0080307F02031D65280830FD
:1000C80063020318BD28831203136B08D5006A085E
:1000D800D4005108D7005008D6008A1118238A1175
:1000E800831203135408D8005508D9006508580727
:1000F800DA005A07013E84008A1100218A11DB00C8
:100108008A1100218A11DC00610A8D280310DC0C99
:10011800DB0CFF3E031D8A285B080139DD006508FA
:10012800DE0003300310DE0DFF3E031D962820304D
:100138005E07DF0063085F07E000600884005D0871
:10014800831380000130E3070318E40A0030E40752
:10015800FF30E1070318E20AFF30E2076408803A3B
:10016800FF0080307F02031DBB2808306302031C98
:100178006728013083120313E5070318E60A0030E5
:04018800E607492815
:1002000001308A000408840A820700340034003474
:100210001D340034153400341734003400340034F5
:100220000F3400340934003409340034003400340D
:100230000F34003404340034083400340034003403
:1002400006340034093400340634003400340034F9
:100250001F340034003400341F34003400340034C0
:1002600017340034003400340F34003404340034C4
:100270000834003407340034003400341D340034B2
:10028000153400340F3400340034003400340034AA
:100290000034003410340034103400341F3400347F
:1002A0001034003410340034003400340E34003480
:1002B000153400340D340034003400340534003477
:1002C000023400340534003400340034083400347F
:1002D0000F34003408340034003400340034003467
:1002E0001D340034003400341D3400340034003434
:1002F0000234003419340034013400340134003441
:1003000001340034193400340234003407308312CD
:100310000313D4000030D500D51BF5290330540653
:100320005504031D9E297908F40002300310F40DD2
:10033000FF3E031D96290310740DCE29023054068A
:100340005504031DAF297908F40002300310F40DA1
:10035000FF3E031DA6290310740D013ECE29540350
:100360005504031DBF297908F40002300310F40D71
:10037000FF3E031DB6290310740D023ECE2954081A
:100380005504031DD0297908F40002300310F40D40
:10039000FF3E031DC6290310740D033E203EDF29D6
:1003A0007908F40003300310F40DFF3E031DD32938
:1003B00020307407F50054087507F60076088400AD
:1003C00083130008031DE829831203130714EB2984
:1003D00083120313071007150711FF30D407031802
:1003E000D50AFF30D507D51F8E290130F4007408D7
:1003F000F90706307906031D0800F9010800831289
:100400000313DF01E0016008803AFF0080307F02C3
:10041000031D0C2A06305F02031808008312031321
:10042000DD01DE010730DB000030DC005E08803AD1
:10043000FF0080307F02031D1F2A08305D02031871
:10044000652A831203135F08D4005407013E840019
:100450008A1100218A11D5008A1100218A11D60043
:100460005B0A352A0310D60CD50CFF3E031D322A39
:1004700055080139D7005F08D80003300310D80DA4
:10048000FF3E031D3E2A20305807D9005D0859075A
:10049000DA005A0884005708831380000130DD0712
:1004A0000318DE0A0030DE07FF30DB070318DC0A22
:1004B000FF30DC075E08803AFF0080307F02031DBA
:1004C000632A08305D02031C212A013083120313C2
:1004D000DF070318E00A0030E007032A8A118823A7
:1004E0008A118A117D238A118A11E4228A118A11C4
:1004F000FF218A118A1173238A1183120313E801E1
:10050000E9018312031307168A1186218A118312C7
:1005100003130712C73083120313E7008F2AE70B78
:100520008E2A922A00008312031307168A113B2396
:100530008A11013083120313E8070318E90A003017
:10054000E9076908803AFF0081307F02031DAA2A6B
:10055000F5306802031C812A8A112C208A117D2A19
:1005600001340134013401340134013401340134E3
:1005700001340134013401340134013401340134D3
:1005800001340134013401340134013401340134C3
:1005900001340134013401340134013401340134B3
:1005A00001340134013401340134013401340134A3
:1005B0000134013401340134013401340134013493
:1005C00006340034183400348312031307168710DE
:1005D0000714F501F6017608803AFF0080307F02AB
:1005E000031DF42A083075020318142B8312031319
:1005F000871507150630F400F40BFC2A000083125F
:100600000313871107110130F5070318F60A0030AC
:10061000F6077608803AFF0080307F02031D122B18
:1006200008307502031CF62A831203130712080010
:10063000F401F50183120313541C242B5608F4070C
:100640000318F50A5708F50701300310D60DD70D2A
:10065000FF3E031D252B01300310D50CD40CFF3EAB
:10066000031D2C2B54085504031D1A2B7508D500A7
:100670007408D40008007808803AFF0080307F02B8
:10068000031D442B06307702031C4B2B83120313EC
:100690008714F701F80183120313871587110130BE
:1006A000F7070318F80A0030F80708007E088A00E8
:1006B0007F08820056238A118000840A04087D0680
:1006C00003190034FF0A0319FE0A5A2B0B190B11E8
:1006D0007308FF0072088A0071088400700E83009E
:1006E000FE0E7E0E0900831203130716871487156A
:1006F00087118715871107120800831603139101CC
:10070000FF308500C03087008B12080002340034AF
:020710000800DF
:02400E00F4FCC0
:00000001FF
