:040000008A11112828
:10000800FE00030EF0000408F1000A08F200831253
:1000180003137F08F3008A113F2B8A1113288313D7
:100028005030FD000230FE00D730FF002030840041
:100038008A1156238A118A1175238A11FA008A11A6
:0C0048007623FB00FC0183018A11072BCA
:100200007F087F398A000408840A0319FF0A8200E4
:1002100024340034243400340034003442340034B4
:100220003C3400348034003424340034243400342A
:1002300000340034423400343C3400344034003460
:100240002434003424340034003400344234003484
:100250003C3400342034003424340034243400345A
:1002600000340034423400343C3400341034003460
:100270002434003424340034003400344234003454
:100280003C34003408340034243400342434003442
:1002900000340034423400343C340034043400343C
:1002A0002434003424340034003400344234003424
:1002B0003C34003402340034243400342434003418
:1002C00000340034423400343C340034013400340F
:1002D00024340034243400340034003442340034F4
:1002E0003D340034003400342434003424340034E9
:1002F00000340034433400343C34003400340034DF
:1003000024340034243400340134003442340034C2
:100310003C340034003400342434003425340034B8
:1003200000340034423400343C34003400340034AF
:100330002534003424340034003400344234003492
:100340003C34003400340034263400342434003487
:1003500000340034423400343C340034003400347F
:100360002434003424340034003400344234003463
:100370003C340034003400342C3400342434003451
:1003800000340034423400343C340034003400344F
:100390003434003424340034003400344234003423
:1003A0003C34003400340034243400342434003429
:1003B00000340034423400343C340034003400341F
:1003C00064340034243400340034003442340034C3
:1003D0003C34003400340034A43400342434003479
:1003E00000340034423400343C34003400340034EF
:1003F00024340034A4340034003400344234003453
:100400003C340034003400342434003424340034C8
:1004100080340034423400343C340034003400343E
:10042000243400342434003400340034C234003422
:100430003C34003400340034243400342434003498
:100440000034003442340034BC340034003400340E
:100450008312031307160730F7000030F800F81B6B
:10046000982A033077067804031D412A7C08F4009B
:1004700002300310F40DFF3E031D392A0310740DE2
:10048000712A023077067804031D522A7C08F40092
:1004900002300310F40DFF3E031D492A0310740DB2
:1004A000013E712A77037804031D622A7C08F40058
:1004B00002300310F40DFF3E031D592A0310740D82
:1004C000023E712A77087804031D732A7C08F40021
:1004D00002300310F40DFF3E031D692A0310740D52
:1004E000033E203E822A7C08F40003300310F40D02
:1004F000FF3E031D762A20307407F5007708750744
:10050000F6007608840083130008031D8B2A8312EB
:10051000031307148E2A83120313071007150711FC
:10052000FF30F7070318F80AFF30F807F81F312AE1
:1005300007120130F4007408FC0706307C06031D26
:100540000800FC0108008312031307168710071424
:10055000F501F6017608803AFF0080307F02031D26
:10056000B32A083075020318D32A831203138715A0
:1005700007150630F400F40BBB2A000083120313A6
:10058000871107110130F5070318F60A0030F60746
:100590007608803AFF0080307F02031DD12A0830A0
:1005A0007502031CB52A83120313071208000034D6
:1005B0000034013400340034013400340034003499
:1005C0000034013400340034013400340034003489
:1005D000003400340034003400340034003400347B
:1005E0000134003400340034003401340034003469
:1005F0000034013401340134013400340034003457
:1006000000340034003400340034003400348A11E3
:1006100077238A118A116C238A118A11A3228A11E5
:100620008A1162238A118A1128228A11C730F9009F
:10063000192BF90B182B1C2B1D2B831203130716D8
:100640008A1124238A11132B7B08803AFF00803003
:100650007F02031D2D2B06307A02031C342B8312DC
:1006600003138714FA01FB01831203138715871103
:100670000130FA070318FB0A0030FB0708000B1DC6
:10068000452B8A1178238A110B11730883120313E7
:10069000FF0072088A0071088400700E8300FE0E4D
:1006A0007E0E09007E088A007F08820052238A118C
:1006B0008000840A04087D0603190034FF0A031928
:1006C000FE0A562B8312031307168714871587110A
:1006D0008715871107120800831603139101FF3055
:1006E0008500C03087008B120800023400340800F7
:0206F000080000
:02400E00F4FCC0
:00000001FF
