:040000008A11112828
:10000800FE00030E83120313A6000408A7000A08C3
:10001800A8007F08A9008A11882D8A111328831344
:10002800D030FD000430FE00F730FF00A03084001F
:100038008A119F258A114730FD000530FE00BE3029
:10004800FF00413084008A119F25C701C801C901FA
:0600580083018A11862CD1
:10020000FF1B0A2983137F1883170008840A031928
:10021000FF0A08007F087F398A000408840A03194E
:10022000FF0A8200243400342434003400340034C3
:10023000423400343C3400348034003424340034FC
:100240002434003400340034423400343C3400346C
:100250004034003424340034243400340034003476
:10026000423400343C34003420340034243400342C
:100270002434003400340034423400343C3400343C
:100280001034003424340034243400340034003476
:10029000423400343C340034083400342434003414
:1002A0002434003400340034423400343C3400340C
:1002B0000434003424340034243400340034003452
:1002C000423400343C3400340234003424340034EA
:1002D0002434003400340034423400343C340034DC
:1002E0000134003424340034243400340034003425
:1002F000423400343D3400340034003424340034BB
:100300002434003400340034433400343C340034AA
:1003100000340034243400342434003401340034F4
:10032000423400343C34003400340034243400348B
:100330002534003400340034423400343C3400347A
:1003400000340034253400342434003400340034C4
:10035000423400343C340034003400342634003459
:100360002434003400340034423400343C3400344B
:100370000034003424340034243400340034003495
:10038000423400343C340034003400342C34003423
:100390002434003400340034423400343C3400341B
:1003A0000034003434340034243400340034003455
:1003B000423400343C3400340034003424340034FB
:1003C0002434003400340034423400343C340034EB
:1003D00000340034643400342434003400340034F5
:1003E000423400343C34003400340034A43400344B
:1003F0002434003400340034423400343C340034BB
:100400000034003424340034A43400340034003484
:10041000423400343C34003400340034243400349A
:100420002434003480340034423400343C3400340A
:1004300000340034243400342434003400340034D4
:10044000C23400343C3400340034003424340034EA
:10045000243400340034003442340034BC340034DA
:100460000034003483120313BC01BD013D08803AFF
:10047000FF0080307F02031D3F2A06303C02031834
:10048000C62A83120313BA01BB010730B80000303B
:10049000B9003B08803AFF0080307F02031D522ADA
:1004A00008303A020318B32A831203134808AB003A
:1004B0004708AA004408AD004308AC008A1127256C
:1004C0008A11831203133C082A07B0003D08031861
:1004D0003D0A2B07B1000310B00DB10D813031077B
:1004E000FF001230300784000318FF0A8A11002130
:1004F0008A11B2008A1100218A11B300380A832AB6
:100500000310B30CB20CFF3E031D802A32080139E0
:10051000B4003C08B50003300310B50DFF3E031DC9
:100520008C2AA0303507B6003A083607B7003708DE
:1005300084003408831380000130BA070318BB0A13
:100540000030BB07FF30B8070318B90AFF30B907FE
:100550003B08803AFF0080307F02031DB12A08303B
:100560003A02031C542A013083120313BC070318F8
:10057000BD0A0030BD073D08803AFF0080307F0291
:10058000031DC42A06303C02031C412A83120313B4
:100590004808803AB0004608803A3002031DD22A4B
:1005A00045084702031CD92A83120313C701C80157
:1005B0000800013083120313C7070318C80A00306C
:1005C000C807080083120313A401A5012508803A77
:1005D000FF0080307F02031DEF2A0630240203183B
:1005E000762B83120313A201A3010730A000003071
:1005F000A1002308803AFF0080307F02031D022BF8
:10060000083022020318632B831203134808F100F9
:100610004708F0004408F3004308F2008A114A2515
:100620008A118312031324087007F60025080318A3
:10063000250A7107F7000310F60DF70D81307707D3
:10064000FF001230760784000318FF0A8A11002188
:100650008A11F8008A1100218A11F900200A332B2F
:100660000310F90CF80CFF3E031D302B78080139FC
:10067000FA002408FB0003300310FB0DFF3E031DAE
:100680003C2BA0307B07FC0022087C07FD007D0886
:1006900084007A08831380000130A2070318A30A9C
:1006A0000030A307FF30A0070318A10AFF30A107FD
:1006B0002308803AFF0080307F02031D612B083041
:1006C0002202031C042B013083120313A407031816
:1006D000A50A0030A5072508803AFF0080307F0278
:1006E000031D742B06302402031CF12A831203130A
:1006F0004808803AF6004608803A7602031D822BAD
:1007000045084702031C892B83120313C701C80144
:100710000800013083120313C7070318C80A00300A
:10072000C80708008312031307160730AD00003016
:10073000AE00AE1B022C03302D062E04031DAB2B86
:100740004908AA0002300310AA0DFF3E031DA32B87
:1007500003102A0DDB2B02302D062E04031DBC2BAB
:100760004908AA0002300310AA0DFF3E031DB32B57
:1007700003102A0D013EDB2B2D032E04031DCC2B71
:100780004908AA0002300310AA0DFF3E031DC32B27
:1007900003102A0D023EDB2B2D082E04031DDD2B3A
:1007A0004908AA0002300310AA0DFF3E031DD32BF7
:1007B00003102A0D033EA03EEC2B4908AA0003308B
:1007C0000310AA0DFF3E031DE02BA0302A07AB004B
:1007D0002D082B07AC002C08840083130008031D90
:1007E000F52B831203130714F82B8312031307103E
:1007F00007150711FF30AD070318AE0AFF30AE072B
:10080000AE1F9B2B07120130AA002A08C907063029
:100810004906031D0800C901080083120313B6012D
:10082000B7013708803AFF0080307F02031D1A2C81
:10083000063036020318080083120313B401B50111
:100840000730B2000030B3003508803AFF00803036
:100850007F02031D2D2C0830340203187D2C8312D7
:1008600003133708AB003608AA000310AA0DAB0D1E
:1008700081302B07FF0012302A0784000318FF0A7B
:100880008A1100218A11AC008A1100218A11AD0061
:10089000320A4D2C0310AD0CAC0CFF3E031D4A2C4C
:1008A0002C080139AE003608AF0003300310AF0D3D
:1008B000FF3E031D562CA0302F07B0003408300730
:1008C000B100310884002E08831380000130B40782
:1008D0000318B50A0030B507FF30B2070318B30A92
:1008E000FF30B3073508803AFF0080307F02031DD8
:1008F0007B2C08303402031C2F2C0130831203138D
:10090000B6070318B70A0030B707112C8A11C4259F
:100910008A118A11B5258A118A11C2248A118A1175
:100920000D248A118A11AB258A1183120313BF018A
:10093000C0018A1192238A11C73083120313BE00AB
:10094000A12CBE0BA02CA42C0000831203130716AD
:100950008A116B258A11013083120313BF07031814
:10096000C00A0030C0074008803AFF0083307F0291
:10097000031DBC2CE9303F02031C992C8A11322242
:100980008A11952C83120313071687100714AB01E5
:10099000AC012C08803AFF0080307F02031DD22C6E
:1009A00008302B020318F32C831203138715071545
:1009B000063083120313AA00AA0BDC2C8312031344
:1009C000871107110130AB070318AC0A0030AC07E0
:1009D0002C08803AFF0080307F02031DF12C083084
:1009E0002B02031CD42C83120313071208000134BA
:1009F000013401340134013401340134013401344F
:100A0000013401340134013401340134013401343E
:100A1000013401340134013401340134013401342E
:100A2000013401340134013401340134013401341E
:100A3000013401340134013401340134013401340E
:100A4000013401340134013401340134013483129E
:100A50000313AE01AF012A1C332D2C08AE07031877
:100A6000AF0A2D08AF0701300310AC0DAD0DFF3EEE
:100A7000031D342D01300310AB0CAA0CFF3E031DE7
:100A80003B2D2A082B04031D2B2D2F08AB002E080D
:100A9000AA000800F401F501701C542D7208F40737
:100AA0000318F50A7308F50701300310F20DF30D72
:100AB000FF3E031D552D01300310F10CF00CFF3EDD
:100AC000031D5C2D70087104031D4C2D7508F10089
:100AD0007408F0000800831203134208803AFF00F4
:100AE00080307F02031D762D06304102031C7D2DD0
:100AF000831203138714C101C201831203138715E4
:100B000087110130C1070318C20A0030C20708006C
:100B10000B1D8E2D8A11E2228A110B1183120313F1
:100B20002908FF0028088A0027088400260E830071
:100B3000FE0E7E0E09007E088A007F0882009B253B
:100B40008A118000840A04087D0603190034FF0A14
:100B50000319FE0A9F2D83120313071687148715A6
:100B60008711871587110712080083160313910157
:100B7000FF308500C03087008B120800023400343B
:0A0B80000834003418340034080073
:02400E00F4FCC0
:00000001FF
